{
  "contractName": "OAEuthContract",
  "abi": [
    {
      "constant": false,
      "inputs": [
        {
          "name": "target",
          "type": "string"
        }
      ],
      "name": "issueGrant",
      "outputs": [],
      "payable": false,
      "stateMutability": "nonpayable",
      "type": "function"
    },
    {
      "constant": true,
      "inputs": [
        {
          "name": "message",
          "type": "string"
        }
      ],
      "name": "calculateHash",
      "outputs": [
        {
          "name": "",
          "type": "bytes32"
        }
      ],
      "payable": false,
      "stateMutability": "view",
      "type": "function"
    },
    {
      "constant": true,
      "inputs": [
        {
          "name": "subject",
          "type": "address"
        }
      ],
      "name": "getSubjectGrants",
      "outputs": [
        {
          "name": "grants",
          "type": "bytes32[]"
        }
      ],
      "payable": false,
      "stateMutability": "view",
      "type": "function"
    },
    {
      "constant": true,
      "inputs": [
        {
          "name": "hash",
          "type": "bytes32"
        },
        {
          "name": "subject",
          "type": "address"
        }
      ],
      "name": "getGrantByHash",
      "outputs": [
        {
          "name": "target",
          "type": "string"
        },
        {
          "name": "issuedAt",
          "type": "uint256"
        },
        {
          "name": "issuerBlock",
          "type": "uint256"
        }
      ],
      "payable": false,
      "stateMutability": "view",
      "type": "function"
    },
    {
      "constant": true,
      "inputs": [
        {
          "name": "queryTarget",
          "type": "string"
        },
        {
          "name": "subject",
          "type": "address"
        }
      ],
      "name": "getGrant",
      "outputs": [
        {
          "name": "target",
          "type": "string"
        },
        {
          "name": "issuedAt",
          "type": "uint256"
        },
        {
          "name": "issuerBlock",
          "type": "uint256"
        }
      ],
      "payable": false,
      "stateMutability": "view",
      "type": "function"
    }
  ],
  "bytecode": "0x6060604052341561000f57600080fd5b6108c18061001e6000396000f30060606040526004361061006d576000357c0100000000000000000000000000000000000000000000000000000000900463ffffffff16806331bba81d14610072578063a8cbcecd146100cf578063b722134514610148578063b892b7b9146101d6578063c18f3f27146102a3575b600080fd5b341561007d57600080fd5b6100cd600480803590602001908201803590602001908080601f016020809104026020016040519081016040528093929190818152602001838380828437820191505050505050919050506103a6565b005b34156100da57600080fd5b61012a600480803590602001908201803590602001908080601f016020809104026020016040519081016040528093929190818152602001838380828437820191505050505050919050506104a9565b60405180826000191660001916815260200191505060405180910390f35b341561015357600080fd5b61017f600480803573ffffffffffffffffffffffffffffffffffffffff1690602001909190505061053e565b6040518080602001828103825283818151815260200191508051906020019060200280838360005b838110156101c25780820151818401526020810190506101a7565b505050509050019250505060405180910390f35b34156101e157600080fd5b61021a60048080356000191690602001909190803573ffffffffffffffffffffffffffffffffffffffff169060200190919050506105df565b6040518080602001848152602001838152602001828103825285818151815260200191508051906020019080838360005b8381101561026657808201518184015260208101905061024b565b50505050905090810190601f1680156102935780820380516001836020036101000a031916815260200191505b5094505050505060405180910390f35b34156102ae57600080fd5b61031d600480803590602001908201803590602001908080601f0160208091040260200160405190810160405280939291908181526020018383808284378201915050505050509190803573ffffffffffffffffffffffffffffffffffffffff1690602001909190505061070e565b6040518080602001848152602001838152602001828103825285818151815260200191508051906020019080838360005b8381101561036957808201518184015260208101905061034e565b50505050905090810190601f1680156103965780820380516001836020036101000a031916815260200191505b5094505050505060405180910390f35b6000806103b2836104a9565b91506000803373ffffffffffffffffffffffffffffffffffffffff1673ffffffffffffffffffffffffffffffffffffffff16815260200190815260200160002060008360001916600019168152602001908152602001600020905082816000019080519060200190610425929190610777565b50428160010181905550438160020181905550600160003373ffffffffffffffffffffffffffffffffffffffff1673ffffffffffffffffffffffffffffffffffffffff168152602001908152602001600020805480600101828161048991906107f7565b916000526020600020900160008490919091509060001916905550505050565b60006002826000604051602001526040518082805190602001908083835b6020831015156104ec57805182526020820191506020810190506020830392506104c7565b6001836020036101000a03801982511681845116808217855250505050505090500191505060206040518083038160008661646e5a03f1151561052e57600080fd5b5050604051805190509050919050565b610546610823565b600160008373ffffffffffffffffffffffffffffffffffffffff1673ffffffffffffffffffffffffffffffffffffffff1681526020019081526020016000208054806020026020016040519081016040528092919081815260200182805480156105d357602002820191906000526020600020905b815460001916815260200190600101908083116105bb575b50505050509050919050565b6105e7610837565b60008060008060008673ffffffffffffffffffffffffffffffffffffffff1673ffffffffffffffffffffffffffffffffffffffff168152602001908152602001600020600087600019166000191681526020019081526020016000209050600081600201541415151561065957600080fd5b806000018054600181600116156101000203166002900480601f0160208091040260200160405190810160405280929190818152602001828054600181600116156101000203166002900480156106f15780601f106106c6576101008083540402835291602001916106f1565b820191906000526020600020905b8154815290600101906020018083116106d457829003601f168201915b505050505093508060010154925080600201549150509250925092565b610716610837565b600080600080610725876104a9565b915061073182876105df565b94509450945061076e565b81548152906001019060200180831161073c57829003601f168201915050505050945080600101549350806002015492505b50509250925092565b828054600181600116156101000203166002900490600052602060002090601f016020900481019282601f106107b857805160ff19168380011785556107e6565b828001600101855582156107e6579182015b828111156107e55782518255916020019190600101906107ca565b5b5090506107f3919061084b565b5090565b81548183558181151161081e5781836000526020600020918201910161081d9190610870565b5b505050565b602060405190810160405280600081525090565b602060405190810160405280600081525090565b61086d91905b80821115610869576000816000905550600101610851565b5090565b90565b61089291905b8082111561088e576000816000905550600101610876565b5090565b905600a165627a7a72305820f545b277c0d2f39e21f577a800b5165add306139a9ca29f5e2915f8432b966f60029",
  "source": "pragma solidity ^0.4.7;\r\n\r\ncontract OAEuthContract {\r\n\r\n  mapping (address => mapping (bytes32 => Grant)) private grants;\r\n\r\n  mapping (address => bytes32[]) private subjectGrants;\r\n\r\n  struct Grant {\r\n  string target;\r\n  uint issuedAt;\r\n  uint issuerBlock;\r\n  }\r\n\r\n  function issueGrant(string target) {\r\n    var hash = calculateHash(target);\r\n    var grant = grants[msg.sender][hash];\r\n    // assemble grant\r\n    grant.target = target;\r\n    grant.issuedAt = block.timestamp;\r\n    grant.issuerBlock = block.number;\r\n    // memorize grant for subject\r\n    subjectGrants[msg.sender].push(hash);\r\n  }\r\n\r\n  function getGrant(string queryTarget, address subject) constant\r\n  returns (string target, uint issuedAt, uint issuerBlock) {\r\n    var hash = calculateHash(queryTarget);\r\n    return getGrantByHash(hash, subject);\r\n    // retrieve associated grant\r\n    var grant = grants[subject][hash];\r\n    // make sure the grant is on the chain\r\n    require(grant.issuerBlock != 0);\r\n    // set return values\r\n    target = grant.target;\r\n    issuedAt = grant.issuedAt;\r\n    issuerBlock = grant.issuerBlock;\r\n  }\r\n\r\n  function getGrantByHash(bytes32 hash, address subject) constant\r\n  returns (string target, uint issuedAt, uint issuerBlock) {\r\n    var grant = grants[subject][hash];\r\n    // make sure the grant is on the chain\r\n    require(grant.issuerBlock != 0);\r\n    // set return values\r\n    target = grant.target;\r\n    issuedAt = grant.issuedAt;\r\n    issuerBlock = grant.issuerBlock;\r\n  }\r\n\r\n  function getSubjectGrants(address subject) constant returns (bytes32[] grants) {\r\n    grants = subjectGrants[subject];\r\n  }\r\n\r\n  // UTIL\r\n\r\n  function calculateHash(string message) constant returns (bytes32) {\r\n    return sha256(message);\r\n  }\r\n}\r\n",
  "sourcePath": "C:\\Users\\mehlhorn\\Projekte\\OAEuth\\source\\contracts\\OAEuthContract.sol",
  "compiler": {
    "name": "solc",
    "version": "0.4.18+commit.9cf6e910.Emscripten.clang"
  },
  "schemaVersion": "1.0.1",
  "updatedAt": "2017-12-02T21:40:15.150Z"
}